:020000040800F2
:10000000B005002001010008CF170008F515000811
:10001000CD170008D50100084D1C000800000000A5
:10002000000000000000000000000000D3170008DE
:10003000D701000800000000D1170008D5170008FC
:100040001B0100081B0100081B0100081B01000820
:100050001B0100081B0100081B0100081B01000810
:100060001B0100081B0100081B0100081B01000800
:100070001B0100081B0100081B0100081B010008F0
:100080001B0100081B0100081B0100081B010008E0
:100090001B0100081B0100081B0100081B010008D0
:1000A0001B0100081B0100081B0100081B010008C0
:1000B000291800081B0100081B0100081B0100088B
:1000C0001B0100081B0100081B0100081B010008A0
:1000D0001B0100081B010008411C00081B0100084F
:1000E0001B0100081B0100081B010008DFF80CD0F1
:1000F00000F05EF8004800477D1E0008B0050020B3
:100100000648804706480047FEE7FEE7FEE7FEE7B1
:10011000FEE7FEE7FEE7FEE7FEE7FEE7251800083C
:10012000ED000008D2B201E000F8012B491EFBD21D
:1001300070470022F6E710B513460A4604461946F2
:10014000FFF7F0FF204610BD30B505462A460B46A6
:1001500012F8010B13F8014B08B1A042F8D01CB102
:10016000002802D06D1CF1E7284630BD10B50446CA
:1001700004E00B7800F8013B03B1491C521EF8D291
:10018000204610BD30B50B46014600202022012438
:1001900009E021FA02F59D4205D303FA02F5491B55
:1001A00004FA02F52844151EA2F10102F1DC30BD6B
:1001B000064C074D06E0E06840F0010394E80700B4
:1001C00098471034AC42F6D3FFF794FFD41E0008D2
:1001D000F41E0008FEE770477047000010B590F865
:1001E00021100024022903D00421816301243DE071
:1001F00001680A6822F00E020A6001680A6822F0AB
:1002000001020A601A4A0168914201D1012121E0EC
:10021000174A1432914201D110211BE0144A2832AE
:10022000914201D1891515E0114A3C32914201D128
:1002300089140FE00E4A5032914202D14FF48031BE
:1002400008E00B4A6432914202D14FF4801101E080
:100250004FF08071064A083A5160012180F8211060
:10026000002180F82010416B01B18847204610BD65
:10027000080002402DE9F84FDFF8B891002409F199
:10028000040A0AF1040B23460F270BF1040EC9E000
:100290000125A5402A40AA427DD1674ED1F804C06D
:1002A000ACEB0608B44532D014DCBCF1030F3AD0F5
:1002B00009DCBCF1000F2AD0BCF1010F1CD0BCF14D
:1002C000020F31D11DE0BCF1110F17D0BCF1120F9C
:1002D0002AD119E0B8F5881F19D006DCB8F5803F9F
:1002E00015D0B8F5801F1FD111E0B8F5001F0ED052
:1002F000B8F5041F18D10AE0CB6815E0CB681B1DC8
:1003000012E0CB6808330FE0CB680C330CE08B684D
:100310002BB1012B4FF0080303D0456104E0042307
:1003200002E0056100E00023FF2A01D8064601E053
:1003300000F104064FEA840501D9A5F12005D6F89D
:10034000008007FA05FC28EA0C0803FA05F548EADC
:100350000508C6F800804D68ED0062D5374DAE69DE
:1003600046F00106AE61AD6924F0030605F0010513
:100370000095334D06EB050CDCF80850A607360F48
:1003800007FA06F825EA0805DFF8B880404503D1EA
:100390004FF0000817E044E0DFF8AC80404502D1A0
:1003A0004FF001080FE0DFF8A480404502D14FF084
:1003B000020808E0DFF89880404502D14FF00308BA
:1003C00001E04FF0040808FA06F848EA0508CCF8FE
:1003D00008804D68D9F80060ED034D4601D51643FD
:1003E00000E096432E604D68DAF80060AD03554694
:1003F00001D5164300E096432E604D68DBF800609F
:10040000ED025D4601D5164300E096432E604D682F
:10041000DEF80060AD02754601D5164300E0964354
:100420002E60641C0D682A46E5407FF431AFBDE8BC
:10043000F88F00000004014000001110001002407D
:100440000000014000080140000C01400010014084
:10045000001401400AB1016170470904FBE7000084
:10046000014880687047000004000020024881684D
:10047000027811448160704704000020074810B5DD
:10048000016841F010010160032000F079F80020BC
:1004900000F006F800F024F8002010BD0020024013
:1004A00070B50D4D04464FF47A712878B1FBF0F029
:1004B0000A490968B1FBF0F000F0F0FA48B9102CD5
:1004C00007D200222146501E00F03AF800206C604E
:1004D00070BD012070BD000004000020100000204D
:1004E0000E4808B5816941F001018161816901F01F
:1004F00001010091C16941F08051C161C06900F002
:1005000080500090052000F03BF80548416821F03C
:10051000E06141F00071416008BD00000010024040
:1005200000000140002809DB00F01F02012191407A
:100530004009800000F1E020C0F800117047000081
:10054000F0B40E4B1B680C46C3F30223C3F107053E
:10055000042D00D90425191D072901D2002300E02C
:10056000DB1E012606FA05F1491E214099409E40F6
:10057000761E16403143F0BC01F07EBB0CED00E06E
:10058000064900F0070208684FF6FF03184040EAEA
:100590000220034A10430860704700000CED00E0A1
:1005A0000000FA052DE9F0470F46050061D0434EE3
:1005B000306800F00700B84209D2306820F0070028
:1005C00038433060306800F00700B84251D12868E5
:1005D0003B4C810712D5400703D5606840F4E060CA
:1005E00060602878000703D5606840F46050606060
:1005F0006068A96820F0F000084360602878C007B0
:1006000028D06868012810D02168022810D08907F6
:1006100000292EDA616821F0030101436160FFF7D0
:100620001FFF804641F288390DE021688903EFE71A
:100630008901EDE7FFF714FFA0EB0801494502D956
:100640000320BDE8F0876068696800F00C00B0EB3B
:10065000810FEFD1306800F00700B8420BD9306845
:1006600020F0070038433060306800F00700B842DF
:1006700001D00120E5E72878400705D56068E968E2
:1006800020F4E060084360602878000706D56068C1
:10069000296920F4605040EAC100606000F038F839
:1006A0006168084AC1F30311515CC84006490860FB
:1006B00006480068FFF7F4FE0020C2E70020024071
:1006C00000100240BC1E000810000020080000209E
:1006D0000448054900684968044AC1F30221515C95
:1006E000C84070471000002000100240CC1E0008D7
:1006F0000448054900684968044AC1F3C221515CB5
:10070000C84070471000002000100240CC1E0008B6
:1007100012A185B00FC98DE80F0014A0144A00681B
:1007200004905168134801F00C03042B10D0082BDF
:100730000ED1C1F38343C9031DF803000AD55168E4
:1007400004AAC1F34041515C0A4A5043B0FBF1F0A6
:1007500005B0704708494843FAE700000203040562
:10076000060708090A0B0C0D0E0F101001020000FD
:100770000010024000127A0000093D002DE9F84FF8
:10078000040070D02078C04DC00749D06868C0F31D
:100790008100012807D06868C0F38100022809D1D0
:1007A0006868C00306D52868800339D560680028CA
:1007B000E7D035E06068B0F5803F0BD010B1B0F500
:1007C000A02F11D0286820F480302860286820F4F9
:1007D000802002E0286840F480302860606890B192
:1007E000FFF73EFE06460AE0286840F480202860B5
:1007F000F0E700BFFFF734FE801B642873D8286839
:100800008003F7D50CE0FFF72BFE064605E000BF9E
:10081000FFF726FE801B6428F0D828688003F7D4F1
:1008200020789A4E80074FF001094FF0000839D523
:10083000686810F00C0F07D06868C0F381000228C8
:1008400009D16868C00306D42868800714D52069D8
:10085000012808D110E02069B0B1C6F80090FFF778
:10086000FFFD074605E00AE1FFF7FAFDC01B02287D
:10087000C4D828688007F7D52868616920F0F80097
:1008800040EAC10028600DE0C6F80080FFF7E8FDEF
:10089000074604E0FFF7E4FDC01B022823D82868C0
:1008A0008007F7D4207800072CD57948A169D9B101
:1008B000C0F80090FFF7D4FD074604E0FFF7D0FD35
:1008C000C01B02280FD8686A8007F7D571484FF41B
:1008D000FA510068B0FBF1F0009000BF0098411E93
:1008E0000091FAD20EE080E0C0F80080FFF7B8FD7A
:1008F000074604E0FFF7B4FDC01B022875D8686AFC
:100900008007F7D42078400760D5E8690027C00049
:1009100008D4E86940F08050E861E869012700F0F8
:10092000805000905C480168C90513D40168834673
:1009300041F480710160FFF793FD824606E000BF3D
:10094000FFF78EFDA0EB0A0064284ED8DBF800000C
:10095000C005F5D5E06801280AD008B1052813D0F4
:10096000286A20F001002862286A20F0040002E0D2
:10097000286A40F001002862E06841F2883B98B1A3
:10098000FFF76EFD82460BE0286A40F00400286203
:10099000EEE700BFFFF764FDA0EB0A0159455AD806
:1009A000286A8007F6D50CE0FFF75AFD824605E07D
:1009B000FFF756FDA0EB0A0159454CD8286A80077D
:1009C000F6D41FB1E86920F08050E861E06988B38F
:1009D0006968C1F38101022944D00228C6F8608009
:1009E00004D0FFF73DFD044638E034E0FFF738FD62
:1009F000074604E0FFF734FDC01B02282BD8286807
:100A00008001F7D4206AB0F5803F05D16868A168FD
:100A100020F4003008436860D4E90801084369689D
:100A200021F4741108436860C6F86090FFF718FD60
:100A3000044606E025E000BFFFF712FD001B022878
:100A400009D828688001F7D51BE000BFFFF708FD33
:100A5000001B022802D90320BDE8F88F2868800116
:100A6000F4D40EE00128F7D06868226A00F48031DF
:100A7000914204D1616A00F47010884201D00120D3
:100A8000EAE70020E8E700000010024000004242D0
:100A900080044242100000200070004010B5401E4B
:100AA000B0F1807F01D3012010BD4FF0E0246061E0
:100AB0000F21601701F0E0F80020A06107202061FD
:100AC000002010BD7047704710B590F83C20012AF7
:100AD00022D0012280F83C20CA688C6822F440723F
:100AE00022434C6822F4806222430C6822F40062A4
:100AF00022430C6922F4805222434C6922F40052B2
:100B00002243C969002322F480420A4301684A64EF
:100B100080F83C30002010BD022010BD70B590F868
:100B20003C20012A26D0012480F83C40022280F893
:100B30003D2003685A689D6822F070060A683243B7
:100B40005A600D4B02689A4208D0B2F1804F05D02E
:100B50000A4B9A4202D00A4B9A4204D1496825F0C6
:100B600080031943916080F83D40002180F83C10DB
:100B7000084670BD022070BD002C014000040040FA
:100B80000008004010B5040003D094F83D0010B1F7
:100B900007E0012010BD002084F83C00204600F052
:100BA0001FF8022084F83D00211D206800F042FE5D
:100BB000012084F8460084F83E0084F83F0084F861
:100BC000400084F8410084F8420084F8430084F82F
:100BD000440084F8450084F83D00002010BD00006A
:100BE00008B5114A01681148914208D1816941F460
:100BF00000618161806900F40060009008BDB1F17E
:100C0000804FFBD1C16941F00101C161C06900227F
:100C100000F00100009011461C20FFF791FCBDE898
:100C200008401C20FFF77EBC002C01400010024051
:100C300070B5044690F83C00012817D0012584F8CF
:100C40003C50022084F83D002068826822F0770240
:100C500022F47F4282600868502830D00DDC2028C2
:100C60004DD005DC98B310283BD148E0022070BD80
:100C7000302844D0402834D139E0602828D070286A
:100C800006D0B0F5805F2CD0B0F5005F29D10AE026
:100C9000CB68D1E90121206800F00FFE206881684F
:100CA00041F0770109E0CB68D1E90121206800F02B
:100CB00004FE2068816841F48041816011E0CA68C7
:100CC0004968206800F0AEFE5021206807E016E079
:100CD000CA684968206800F0B6FE6021206800F00C
:100CE000F6FD84F83D50002084F83C0070BDCA68D1
:100CF0004968206800F096FE40212068EFE72268EE
:100D000001461046EBE7704770B50446006801697C
:100D10004FF00005C943890715D4C168C943890745
:100D200011D4E91E016101202077206880698007C5
:100D3000204602D0FFF7E7FF04E000F0E5F8204688
:100D400000F0A2F9257720680169C943490717D443
:100D5000C168C943490713D46FF00401016102203F
:100D600020772068806910F4407F204602D0FFF78A
:100D7000CAFF04E000F0C8F8204600F085F92577A6
:100D800020680169C943090716D4C168C943090726
:100D900012D46FF008010161042020772068C06937
:100DA0008007204602D0FFF7AEFF04E000F0ACF869
:100DB000204600F069F9257720680169C943C90612
:100DC00017D4C168C943C90613D46FF0100101617B
:100DD000082020772068C06910F4407F204602D0A8
:100DE000FFF791FF04E000F08FF8204600F04CF987
:100DF000257720680169C943C90708D1C168C9437B
:100E0000C90704D1891E0161204600F08DF92068D0
:100E10000169C943090609D4C168C943090605D453
:100E20006FF0800101612046FFF74CFE20680169E8
:100E3000C943490609D4C168C943490605D46FF0BE
:100E400040010161204600F070F920680169C94342
:100E500089060BD4C168C943890607D46FF0200105
:100E600001612046BDE87040FFF72DBE70BD000057
:100E700000B585B0002100910191029103910068B5
:100E80000B49884212D10B48816941F0040181610C
:100E90008069694600F0040004904FF440700090AF
:100EA0000220019003900448FFF7E4F905B000BD6B
:100EB000002C0140001002400008014010B504461B
:100EC00090F83C0001280AD0012084F83C0042B18F
:100ED000042A0AD0082A0CD00C2A11D10DE00220D5
:100EE00010BD206800F0FCFC0AE0206800F020FD46
:100EF00006E0206800F048FD02E0206800F070FD88
:100F0000002084F83C0010BD704710B5040003D0E9
:100F100094F83D0010B107E0012010BD002084F8D6
:100F20003C00204600F01EF8022084F83D00211D00
:100F3000206800F07FFC012084F8460084F83E0021
:100F400084F83F0084F8400084F8410084F84200AF
:100F500084F8430084F8440084F8450084F83D0098
:100F6000002010BD704770B5044690F83C000D4657
:100F700001280AD0012084F83C0042B1042A18D08C
:100F8000082A2AD00C2A4DD139E0022070BD2068F1
:100F900000F0A6FC2068816941F0080181612068A9
:100FA000816921F004018161206881692A69114306
:100FB00011E0206800F0BCFC2068816941F4006108
:100FC00081612068816921F4806181612068816983
:100FD0002A6941EA0221816124E0206800F0D4FC02
:100FE0002068C16941F00801C1612068C16921F030
:100FF0000401C1612068C1692A69114311E02068B8
:1010000000F0EEFC2068C16941F40061C161206814
:10101000C16921F48061C1612068C1692A6941EA1E
:101020000221C161002084F83C0070BD10B50400AD
:1010300003D094F83D0010B107E0012010BD00205E
:1010400084F83C00204600F01EF8022084F83D00A1
:10105000211D206800F0EEFB012084F8460084F892
:101060003E0084F83F0084F8400084F8410084F892
:10107000420084F8430084F8440084F8450084F872
:101080003D00002010BD70477047000010B50446B9
:10109000022249B104290ED0082913D094F8410046
:1010A000012816D0012010BD94F83E000128F9D186
:1010B00084F83E200FE094F83F000128F2D184F834
:1010C0003F2008E094F840000128EBD184F840204C
:1010D00001E084F841200122206800F0E1FB0F4983
:1010E0002068884203D1426C42F400424264206886
:1010F000884208D0B0F1804F05D00949884202D01B
:101100000849884204D1816801F00701062903D00B
:10111000016841F001010160002010BD002C014078
:10112000000400400008004070477047704700000E
:1011300070B5026804461068D168536910F00F0F4B
:1011400053D003F0010501F490762E435FD0C2071F
:1011500005D0CA0503D5E26B42F00102E263420703
:1011600005D5DA0703D0E26B42F00202E2638207A0
:1011700005D5DA0703D0E26B42F00402E26302070E
:1011800007D501F020022A4303D0E26B42F00802A7
:10119000E263E26B002A34D0800604D5880602D5CB
:1011A000204600F078FC20684069E16BC0F38010B5
:1011B00001F008010143204624D000F05EFC2068C5
:1011C000416949061AD5416921F040014161606BCE
:1011D000A0B12D494163606BFFF700F8002810D0E3
:1011E000606B416BBDE87040084783060FD58B06E6
:1011F0000DD52046BDE8704000F04DBC2046FFF7FD
:1012000095FF70BDFFF792FF0020E06370BD0306FD
:101210002BD50B0629D594F839002128F6D1A068E2
:10122000B0F5805F01D12069B0B1206A411C216214
:10123000216800784860E08C401E0004000CE084C7
:10124000E4D12068C16821F08001C1602068C168D4
:1012500041F04001C16070BD206A0088C0F3080001
:101260005060206A801C2062E5E74006F3D54806FE
:10127000F1D5D168204621F04001D160202184F8C9
:10128000391000F0B6F970BD6B1A000870B5040093
:1012900004D094F83900002510B106E0012070BD9B
:1012A00084F83850204600F023F8242084F83900D0
:1012B0002068C16821F40051C160204600F032FC72
:1012C0002068016921F4904101612068416921F0A1
:1012D0002A0141612068C16841F40051C160E563A1
:1012E000202084F8390084F83A00002070BD000006
:1012F00030B585B0002400940194029403940068F2
:10130000184988422BD11848C16941F40031C161A4
:10131000C16901F400310491816941F004018161E6
:101320008069124D00F00400049004200090022017
:1013300001900320039069462846FEF79BFF082092
:10134000CDE90004694628460294FEF793FF002287
:1013500011462620FFF7F4F82620FFF7E3F805B042
:1013600030BD000000440040001002400008014071
:1013700090F83A30202B22D1F9B1F2B190F8383000
:10138000012B1CD081628285C2850021C16322228B
:1013900080F83A2080F838100168CA6842F48072F8
:1013A000CA6001684A6942F001024A610068C16886
:1013B00041F02001C16000207047012070470220E9
:1013C0007047000070B500683949B4B0884267D1F1
:1013D000384C4FF000056088010417D421464204C0
:1013E00009780DD40D2908D0334A1154401C80B21D
:1013F0006080C72854D9658052E040F4804003E003
:101400000A29F8D140F40040608049E0C8216846CC
:10141000FEF78FFE284A29A1684600F019FC2648ED
:101420004FF47A763346C8226946403800F088F88F
:101430002CA12148FEF788FE68B300F108010322C1
:1014400032A8FEF793FE9DF8C8009DF8CA10303808
:1014500000EBC00202EB001001EB80009DF8C91008
:10146000F02201EB810102EB41010844C2B2652A7E
:1014700006D21F4802601FA1684600F0E9FB03E0A6
:1014800027A1684600F0E4FB0B483346C8226946B2
:10149000403800F055F86580C8210748FEF749FE3E
:1014A0000548012203494038FFF762FF34B070BDA0
:1014B0000044004000000020E40000205B4D657304
:1014C000736167655D2055534152543220726563E4
:1014D00069657665206D6573736167653A2025736C
:1014E0002E0D0A005431433150574D5F000000006B
:1014F000342C01405B436F6D6D616E645D20436809
:10150000616E67652054494D31204368616E6E6598
:101510006C312050574D3A2025642E0D0A000000F2
:101520005B4572726F725D20496E636F72726563A4
:10153000742050574D2076616C75652E0D0A0000A1
:101540002DE9F843044690F839001F4616460D462B
:1015500020284CD1C5B1BEB194F83800012846D03E
:10156000012084F838004FF00008C4F83C802120A6
:1015700084F83900FEF774FFA6848146E684A068EB
:10158000B0F5805F03D004E00120BDE8F883206956
:1015900028B12E465FF0000584F838800EE0002662
:1015A000FAE78021204600F019FBA0B9AEB116F889
:1015B000010B21684860E08C401EE084E08C4B46C3
:1015C0004FF0000200970028EBD14FF04001204679
:1015D00000F004FB30B10320D7E735F8020BC0F36D
:1015E0000800E6E7202084F839000020CDE702203B
:1015F000CBE77047FEE7000070B586B000241048C6
:101600000094019402940394816941F00401816182
:1016100080690C4E00F004004FF48065049022466F
:1016200029463046FEF716FF01200095CDE901045A
:101630000220039069463046FEF71CFE06B070BDDE
:10164000001002400008014010B596B000240F942D
:1016500010941194129413941C2168461494FEF76C
:1016600068FD202107A8FEF764FD2F482D49016081
:101670002821C0E901146421C0E903144461846194
:10168000FFF780FA08B1FEF7A7FD4FF480500F90E6
:101690000FA92548FFF7CCFA08B1FEF79DFD2248B7
:1016A000FFF7C4FC08B1FEF797FD1F48FFF72DFCBC
:1016B00008B1FEF791FD139413A91B481494FFF78A
:1016C0002DFA08B1FEF788FD6020CDE900040294F0
:1016D0000394049405940022694613480694FFF786
:1016E00042FC08B1FEF778FD042269460E480094DA
:1016F000FFF7E4FB08B1FEF76FFD07940894099427
:101700004FF400500A94CDE90B4007A906480E9407
:10171000FFF7DAF908B1FEF75FFD0348FFF7A8FB12
:1017200016B010BD002C01401400002010B586B08A
:1017300000241748009401940294039404944FF0F9
:1017400080410594016041F6FF01C0E901144FF4A6
:101750007A71C0E903148461FFF714FA08B1FEF747
:101760003BFD4FF48050009069460948FFF760FA4E
:1017700008B1FEF731FD049404A905480594FFF76C
:10178000CDF9002801D0FEF727FD06B010BD0000FE
:101790005C0000200C4810B50A4901604FF4165156
:1017A0004160002181600C22C160C0E904128161A6
:1017B000C161FFF76BFD002803D0BDE81040FEF7C4
:1017C0000BBD10BD00440040A4000020FEE77047A0
:1017D00070477047FEF74ABE30B58FB02821684683
:1017E000FEF7A7FC14210AA8FEF7A3FC022401209F
:1017F000049000941020059000254FF46010CDE96E
:10180000085007946846FEF7B9FF0AA90F2081E83F
:1018100031006002CDE90D0502210AA8FEF7C2FEE3
:101820000FB030BD704700000148FFF76DBA0000EF
:101830005C000020F0B50268164B174C174D4FF0B6
:101840008047984205D0B84203D0A04201D0A842B8
:1018500003D122F070064A683243984205D0B8425C
:1018600003D0A04201D0A84203D122F44074CA6838
:1018700022434C6922F08002224302608A68C262DD
:101880000A688262984201D10969016301214161BC
:10189000F0BD0000002C01400004004000080040A2
:1018A00010B501F01F030121046A99408C430462C2
:1018B000016A9A401143016210BD10B5846842EA82
:1018C000032224F47F440A432243826010BD8268CD
:1018D00022F070020A4342F0070181607047000065
:1018E00030B5026A22F001020262026A436884692A
:1018F00024F073050C682C4322F002058A682A4301
:101900000A4DA8420BD122F00805CA6823F440739F
:101910002A434D6922F004021D438B692B43436027
:10192000846149684163026230BD0000002C0140BF
:1019300030B5026A22F010020262026A43688469CA
:101940000D6824F4E64444EA05248D6822F0200260
:1019500042EA05120B4DA8420ED1CD6822F080025A
:1019600042EA05124D6923F4406343EA85038D6919
:1019700022F0400243EA8503436084614968816341
:10198000026230BD002C014030B5026A22F4807240
:101990000262036A4268C46923F4007324F0730589
:1019A0000C682C438D6843EA05230C4DA8420ED1E8
:1019B000CD6823F4006343EA05234D6922F44052C5
:1019C00042EA05128D6923F4806342EA05124260FF
:1019D000C4614968C163036230BD0000002C01404E
:1019E00030B5026A22F480520262046A4268C36916
:1019F0000D6823F4E64343EA05238D6824F400547C
:101A000044EA0534064DA84204D14D6922F48042CF
:101A100042EA85124260C36149680164046230BDD4
:101A2000002C014010B5036A046A24F0010404622A
:101A3000846924F0F00444EA021423F00A020A4301
:101A40008461026210BD10B5036A23F010030362C3
:101A50008369046A23F4704343EA023224F0A0034A
:101A600043EA01118261016210BD10B5406A002194
:101A7000C185C184FFF75AFB10BD0168CA6822F412
:101A80009072CA6001684A6922F001024A6120210D
:101A900080F83A10704710B590F83A10222901D01A
:101AA000022010BD82684FF480539A4201D101692F
:101AB00021B1816A9A421BD04AB10AE00268816A68
:101AC0005268C2F308020A80816A891C08E0026930
:101AD00072B10268526802F07F020A70816A491C82
:101AE0008162C18D491E0904090CC18503D016E02D
:101AF00002685268F1E70168CA6822F02002CA60F1
:101B00000168CA6822F48072CA6001684A6922F0DA
:101B100001024A61202180F83A10FFF753FC0020AF
:101B200010BD000070B5044600680169E26821F448
:101B30004051114301612169A0680843616908436C
:101B40002168CA6841F20C639A430243CA60206864
:101B50004169A26921F44071114341611E49206825
:101B6000884202D1FEF7C4FD01E0FEF7B1FD00EBB3
:101B7000C00101EB0012606864218000B2FBF0F349
:101B8000B3FBF1F36FF018067343B2FBF0F5B2FB51
:101B9000F0F605EB8305322303EB0515B5FBF1F5F4
:101BA000B6FBF1F605F0F00505EB0615B2FBF0F615
:101BB000B2FBF0F0B0FBF1F06FF01802504306EB0F
:101BC000800003EB0010B0FBF1F0216800F00F0083
:101BD0002844886070BD0000003801402DE9F041C4
:101BE000984617460E460446069D1DE0681C1BD00D
:101BF0002DB1FEF735FCA0EB0800A84214D92068EF
:101C0000C16821F4D071C1602068416921F00101EF
:101C10004161202084F8390084F83A00002084F8DB
:101C200038000320BDE8F0812068006836EA000033
:101C300004D00020B842D9D00020F3E70120F9E712
:101C40000148FFF775BA0000A4000020FEE700007D
:101C50000FB4084B10B504A902AA039800F02CF8A1
:101C6000044602A9002000F003F9204610BC5DF8EC
:101C700014FB0000711E00080907090E002804DB90
:101C800000F1E02080F80014704700F00F0000F130
:101C9000E02080F8141D704702E008C8121F08C138
:101CA000002AFAD170477047002001E001C1121FDD
:101CB000002AFBD1704700002DE9FF4F8BB09A46F8
:101CC0000F460546002606E025280BD052460D9902
:101CD00090476D1C761C28780028F5D10FB030464F
:101CE000BDE8F08F0024A0460122604900E00443D3
:101CF00015F8013F203B02FA03F00842F7D128789B
:101D00002E2817D115F8010F44F004042A280ED00C
:101D10006FF02F022878A0F1300109290AD808EBCA
:101D2000880102EB410100EB01086D1CF2E757F856
:101D3000048B6D1C287869283ED006DC0028CDD0A5
:101D400063280BD0642804D136E0732810D075289E
:101D50004BD052460D999047761C85E017F8040B3E
:101D60008DF8000000208DF80100E946012003E015
:101D700057F8049B4FF0FF3061074FF0000401D487
:101D80000AE0641C44450DDA8442FADB19F80410B9
:101D90000029F6D106E0641C8442FCDB19F804102B
:101DA0000029F8D1264404E019F8010B52460D9998
:101DB0009047641EF8D257E001CF4FF00A0B00287D
:101DC00002DA40422D2102E0210504D52B218DF8B5
:101DD0002410012103E0E10705D02021F7E70DF1F0
:101DE000200908910CE00021F9E701CF4FF00A0B20
:101DF000F9E75946FEF7C6F901F1300209F8012D5D
:101E00000028F6D1ADEB090000F1200B600701D4EA
:101E10004FF00108D84502DDA8EB0B0000E00020E0
:101E20008046002406E009A85246005D0D999047BF
:101E3000641C761C08988442F5DB04E0302052468E
:101E40000D999047761CB8F10001A8F10108F5DC66
:101E500005E019F8010B52460D999047761CBBF12D
:101E60000001ABF1010BF4DC6D1C34E70928010023
:101E70000A68531C0B60107070470000FEF7FEFAF2
:101E8000FFF7AAFCFFF7B8FBFFF7DEFBFFF74EFCFE
:101E9000FFF780FC00210648FFF7F8F8042104480A
:101EA000FFF7F4F8012203490348FFF761FAFEE760
:101EB0001400002000000020A4000020000000000A
:101EC00000000000010203040607080900000000EA
:101ED00001020304F41E00080000002014000000AA
:101EE000981C0008081F0008140000209C05000032
:101EF000A81C000800000000010000001000000005
:081F0000000000000024F400C1
:04000005080000ED02
:00000001FF
