:020000040800F2
:10000000A0040020010100083B120008451100086F
:10001000391200086D0100085915000800000000A1
:100020000000000000000000000000003F12000877
:100030006F010008000000003D1200084112000896
:100040001B0100081B0100081B0100081B01000820
:100050001B0100081B0100081B0100081B01000810
:100060001B0100081B0100081B0100081B01000800
:100070001B0100081B0100081B0100081B010008F0
:100080001B0100081B0100081B0100081B010008E0
:100090001B0100081B0100081B0100081B010008D0
:1000A0001B0100081B0100081B0100081B010008C0
:1000B000951200081B0100081B0100081B01000825
:1000C0001B0100081B0100081B0100081B010008A0
:1000D0001B0100081B0100084D1500081B0100084A
:1000E0001B0100081B0100081B010008DFF80CD0F1
:1000F00000F02AF80048004799150008A0040020E5
:100100000648804706480047FEE7FEE7FEE7FEE7B1
:10011000FEE7FEE7FEE7FEE7FEE7FEE791120008D6
:10012000ED000008D2B201E000F8012B491EFBD21D
:1001300070470022F6E710B513460A4604461946F2
:10014000FFF7F0FF204610BD064C074D06E0E068C3
:1001500040F0010394E8070098471034AC42F6D30E
:10016000FFF7C8FFD0150008F0150008FEE770473C
:100170007047000010B590F821100024022903D028
:100180000421816301243DE001680A6822F00E0227
:100190000A6001680A6822F001020A601A4A0168CE
:1001A000914201D1012121E0174A1432914201D13B
:1001B00010211BE0144A2832914201D1891515E023
:1001C000114A3C32914201D189140FE00E4A50325B
:1001D000914202D14FF4803108E00B4A64329142DF
:1001E00002D14FF4801101E04FF08071064A083AC5
:1001F0005160012180F82110002180F82010416B0E
:1002000001B18847204610BD080002402DE9F84F93
:10021000DFF8B891002409F1040A0AF1040B23461F
:100220000F270BF1040EC9E00125A5402A40AA4280
:100230007DD1674ED1F804C0ACEB0608B44532D08E
:1002400014DCBCF1030F3AD009DCBCF1000F2AD05A
:10025000BCF1010F1CD0BCF1020F31D11DE0BCF18B
:10026000110F17D0BCF1120F2AD119E0B8F5881F71
:1002700019D006DCB8F5803F15D0B8F5801F1FD126
:1002800011E0B8F5001F0ED0B8F5041F18D10AE030
:10029000CB6815E0CB681B1D12E0CB6808330FE07C
:1002A000CB680C330CE08B682BB1012B4FF00803AB
:1002B00003D0456104E0042302E0056100E000236F
:1002C000FF2A01D8064601E000F104064FEA840542
:1002D00001D9A5F12005D6F8008007FA05FC28EA27
:1002E0000C0803FA05F548EA0508C6F800804D68D1
:1002F000ED0062D5374DAE6946F00106AE61AD69DD
:1003000024F0030605F001050095334D06EB050CBE
:10031000DCF80850A607360F07FA06F825EA0805A4
:10032000DFF8B880404503D14FF0000817E044E003
:10033000DFF8AC80404502D14FF001080FE0DFF854
:10034000A480404502D14FF0020808E0DFF8988011
:10035000404502D14FF0030801E04FF0040808FACD
:1003600006F848EA0508CCF808804D68D9F800601E
:10037000ED034D4601D5164300E096432E604D68CF
:10038000DAF80060AD03554601D5164300E0964308
:100390002E604D68DBF80060ED025D4601D5164326
:1003A00000E096432E604D68DEF80060AD027546B1
:1003B00001D5164300E096432E60641C0D682A4662
:1003C000E5407FF431AFBDE8F88F00000004014044
:1003D0000000111000100240000001400008014020
:1003E000000C014000100140001401400AB10161FD
:1003F00070470904FBE7000001488068704700006F
:10040000040000200248816802781144816070472E
:1004100004000020074810B5016841F01001016098
:10042000032000F079F8002000F006F800F024F82E
:10043000002010BD0020024070B50D4D04464FF461
:100440007A712878B1FBF0F00A490968B1FBF0F045
:1004500000F0F0FA48B9102C07D200222146501EB5
:1004600000F03AF800206C6070BD012070BD000003
:1004700004000020100000200E4808B5816941F0FA
:1004800001018161816901F001010091C16941F0BF
:100490008051C161C06900F080500090052000F0DB
:1004A0003BF80548416821F0E06141F0007141608E
:1004B00008BD00000010024000000140002809DBD8
:1004C00000F01F02012191404009800000F1E0206E
:1004D000C0F8001170470000F0B40E4B1B680C46CA
:1004E000C3F30223C3F10705042D00D90425191D08
:1004F000072901D2002300E0DB1E012606FA05F1E0
:10050000491E214099409E40761E16403143F0BC62
:1005100001F023B80CED00E0064900F0070208687E
:100520004FF6FF03184040EA0220034A10430860D8
:10053000704700000CED00E00000FA052DE9F047DF
:100540000F46050061D0434E306800F00700B84206
:1005500009D2306820F0070038433060306800F07E
:100560000700B84251D128683B4C810712D540079B
:1005700003D5606840F4E06060602878000703D528
:10058000606840F4605060606068A96820F0F00026
:10059000084360602878C00728D06868012810D018
:1005A0002168022810D0890700292EDA616821F01D
:1005B000030101436160FFF71FFF804641F2883964
:1005C0000DE021688903EFE78901EDE7FFF714FFEC
:1005D000A0EB0801494502D90320BDE8F087606817
:1005E000696800F00C00B0EB810FEFD1306800F0CB
:1005F0000700B8420BD9306820F00700384330605C
:10060000306800F00700B84201D00120E5E7287803
:10061000400705D56068E96820F4E0600843606041
:100620002878000706D56068296920F4605040EA00
:10063000C100606000F038F86168084AC1F3031136
:10064000515CC8400649086006480068FFF7F4FEA0
:100650000020C2E70020024000100240B815000848
:10066000100000200800002004480549006849687F
:10067000044AC1F30221515CC840704710000020B9
:1006800000100240C8150008044805490068496880
:10069000044AC1F3C221515CC840704710000020D9
:1006A00000100240C815000812A185B00FC98DE8DE
:1006B0000F0014A0144A006804905168134801F018
:1006C0000C03042B10D0082B0ED1C1F38343C903B4
:1006D0001DF803000AD5516804AAC1F34041515CDA
:1006E0000A4A5043B0FBF1F005B07047084948434F
:1006F000FAE7000002030405060708090A0B0C0DBF
:100700000E0F1010010200000010024000127A00CB
:1007100000093D002DE9F84F040070D02078C04D4D
:10072000C00749D06868C0F38100012807D0686815
:10073000C0F38100022809D16868C00306D5286883
:10074000800339D560680028E7D035E06068B0F5EF
:10075000803F0BD010B1B0F5A02F11D0286820F445
:1007600080302860286820F4802002E0286840F467
:1007700080302860606890B1FFF73EFE06460AE0D0
:10078000286840F480202860F0E700BFFFF734FEBF
:10079000801B642873D828688003F7D50CE0FFF726
:1007A0002BFE064605E000BFFFF726FE801B6428EF
:1007B000F0D828688003F7D420789A4E80074FF04D
:1007C00001094FF0000839D5686810F00C0F07D008
:1007D0006868C0F38100022809D16868C00306D4A4
:1007E0002868800714D52069012808D110E0206905
:1007F000B0B1C6F80090FFF7FFFD074605E00AE13B
:10080000FFF7FAFDC01B0228C4D828688007F7D577
:100810002868616920F0F80040EAC10028600DE016
:10082000C6F80080FFF7E8FD074604E0FFF7E4FDA7
:10083000C01B022823D828688007F7D42078000737
:100840002CD57948A169D9B1C0F80090FFF7D4FD43
:10085000074604E0FFF7D0FDC01B02280FD8686AE6
:100860008007F7D571484FF4FA510068B0FBF1F0FA
:10087000009000BF0098411E0091FAD20EE080E087
:10088000C0F80080FFF7B8FD074604E0FFF7B4FDAD
:10089000C01B022875D8686A8007F7D42078400703
:1008A00060D5E8690027C00008D4E86940F08050AE
:1008B000E861E869012700F0805000905C48016819
:1008C000C90513D40168834641F480710160FFF7C4
:1008D00093FD824606E000BFFFF78EFDA0EB0A0005
:1008E00064284ED8DBF80000C005F5D5E068012883
:1008F0000AD008B1052813D0286A20F00100286228
:10090000286A20F0040002E0286A40F00100286212
:10091000E06841F2883B98B1FFF76EFD82460BE03C
:10092000286A40F004002862EEE700BFFFF764FD8C
:10093000A0EB0A0159455AD8286A8007F6D50CE081
:10094000FFF75AFD824605E0FFF756FDA0EB0A01CE
:1009500059454CD8286A8007F6D41FB1E86920F0C1
:100960008050E861E06988B36968C1F381010229B8
:1009700044D00228C6F8608004D0FFF73DFD04464D
:1009800038E034E0FFF738FD074604E0FFF734FDB8
:10099000C01B02282BD828688001F7D4206AB0F544
:1009A000803F05D16868A16820F400300843686082
:1009B000D4E908010843696821F4741108436860A8
:1009C000C6F86090FFF718FD044606E025E000BF7A
:1009D000FFF712FD001B022809D828688001F7D50F
:1009E0001BE000BFFFF708FD001B022802D903200F
:1009F000BDE8F88F28688001F4D40EE00128F7D014
:100A00006868226A00F48031914204D1616A00F47E
:100A10007010884201D00120EAE70020E8E70000DA
:100A200000100240000042428004424210000020B8
:100A30000070004010B5401EB0F1807F01D301204E
:100A400010BD4FF0E02460610F21601700F085FDBC
:100A50000020A06107202061002010BD7047704772
:100A600070B590F83C20012A26D0012480F83C4043
:100A7000022280F83D2003685A689D6822F07006C3
:100A80000A6832435A600D4B02689A4208D0B2F1AC
:100A9000804F05D00A4B9A4202D00A4B9A4204D1A9
:100AA000496825F080031943916080F83D4000219A
:100AB00080F83C10084670BD022070BD002C01403B
:100AC000000400400008004010B5040003D094F872
:100AD0003D0010B107E0012010BD002084F83C006B
:100AE000204600F01FF8022084F83D00211D2068F8
:100AF00000F0D6FB012084F8460084F83E0084F81C
:100B00003F0084F8400084F8410084F8420084F8F3
:100B1000430084F8440084F8450084F83D00002038
:100B200010BD000008B50068B0F1804F12D10A482E
:100B3000C16941F00101C161C069002200F00100FA
:100B4000009011461C20FFF7C7FCBDE808401C20A0
:100B5000FFF7B4BC08BD00000010024090F83D1043
:100B6000012901D001207047022180F83D10016861
:100B7000CA6842F00102CA6000680B49884208D086
:100B8000B0F1804F05D00949884202D00849884217
:100B900004D1816801F00701062903D0016841F002
:100BA0000101016000207047002C0140000400405A
:100BB0000008004070B5044690F83C00012817D0AA
:100BC000012584F83C50022084F83D0020688268AA
:100BD00022F0770222F47F4282600868502830D0E9
:100BE0000DDC20284DD005DC98B310283BD148E01F
:100BF000022070BD302844D0402834D139E060282C
:100C000028D0702806D0B0F5805F2CD0B0F5005FFA
:100C100029D10AE0CB68D1E90121206800F076FBF8
:100C20002068816841F0770109E0CB68D1E90121B2
:100C3000206800F06BFB2068816841F4804181608E
:100C400011E0CA684968206800F072FB50212068F2
:100C500007E016E0CA684968206800F07AFB602166
:100C6000206800F05DFB84F83D50002084F83C00D3
:100C700070BDCA684968206800F05AFB40212068AE
:100C8000EFE7226801461046EBE7704770B504466F
:100C9000006801694FF00005C943890715D4C16890
:100CA000C943890711D4E91E01610120207720681A
:100CB00080698007204602D0FFF7E7FF04E000F0DC
:100CC00098F8204600F096F8257720680169C94316
:100CD000490717D4C168C943490713D46FF0040109
:100CE0000161022020772068806910F4407F20464F
:100CF00002D0FFF7CAFF04E000F07BF8204600F0C6
:100D000079F8257720680169C943090716D4C168B5
:100D1000C943090712D46FF008010161042020774C
:100D20002068C0698007204602D0FFF7AEFF04E0CC
:100D300000F05FF8204600F05DF825772068016933
:100D4000C943C90617D4C168C943C90613D46FF093
:100D500010010161082020772068C06910F4407FED
:100D6000204602D0FFF791FF04E000F042F8204651
:100D700000F040F8257720680169C943C90708D108
:100D8000C168C943C90704D1891E0161204600F02A
:100D900033F820680169C943090609D4C168C94309
:100DA000090605D46FF0800101612046FFF756FE69
:100DB00020680169C943490609D4C168C943490685
:100DC00005D46FF040010161204600F03DF8206835
:100DD0000169C94389060BD4C168C943890607D490
:100DE0006FF0200101612046BDE87040FFF737BE7B
:100DF00070BD70477047000010B50068B0F1804FBB
:100E00000FD1084C2078092808D14FF47A731C229E
:100E100005A10C4800F03CF900202070C0B2401C35
:100E2000207010BD000000205B54696D655D20548A
:100E3000696D657220322069732075706C6F616412
:100E40002E0D0A005C0000207047704770B50268E4
:100E500004461068D168536910F00F0F53D003F0A7
:100E6000010501F490762E435FD0C20705D0CA0574
:100E700003D5E26B42F00102E263420705D5DA07CF
:100E800003D0E26B42F00202E263820705D5DA0783
:100E900003D0E26B42F00402E263020707D501F0DF
:100EA00020022A4303D0E26B42F00802E263E26BC5
:100EB000002A34D0800604D5880602D5204600F0EA
:100EC00070FA20684069E16BC0F3801001F00801FE
:100ED0000143204624D000F056FA206841694906B3
:100EE0001AD5416921F040014161606BA0B12D49E3
:100EF0004163606BFFF73EF9002810D0606B416BD7
:100F0000BDE87040084783060FD58B060DD52046F7
:100F1000BDE8704000F045BA2046FFF796FF70BD6F
:100F2000FFF793FF0020E06370BD03062BD50B068F
:100F300029D594F839002128F6D1A068B0F5805F52
:100F400001D12069B0B1206A411C2162216800787A
:100F50004860E08C401E0004000CE084E4D120686E
:100F6000C16821F08001C1602068C16841F0400182
:100F7000C16070BD206A0088C0F308005060206A1C
:100F8000801C2062E5E74006F3D54806F1D5D1681C
:100F9000204621F04001D160202184F8391000F072
:100FA000D0F870BD7713000870B5040004D094F831
:100FB0003900002510B106E0012070BD84F83850DA
:100FC000204600F023F8242084F839002068C16806
:100FD00021F40051C160204600F02AFA206801691E
:100FE00021F4904101612068416921F02A014161A9
:100FF0002068C16841F40051C160E563202084F895
:10100000390084F83A00002070BD000030B585B08A
:1010100000240094019402940394006818498842C3
:101020002BD11848C16941F40031C161C16901F493
:1010300000310491816941F0040181618069124DA0
:1010400000F004000490042000900220019003208E
:10105000039069462846FFF7D9F80820CDE9000437
:10106000694628460294FFF7D1F80022114626204F
:10107000FFF732FA2620FFF721FA05B030BD000055
:10108000004400400010024000080140704700008A
:101090002DE9F843044690F839001F4616460D46E0
:1010A00020284CD1C5B1BEB194F83800012846D0F3
:1010B000012084F838004FF00008C4F83C8021205B
:1010C00084F83900FFF798F9A6848146E684A06881
:1010D000B0F5805F03D004E00120BDE8F88320690B
:1010E00028B12E465FF0000584F838800EE0002617
:1010F000FAE78021204600F0F7F9A0B9AEB116F862
:10110000010B21684860E08C401EE084E08C4B4677
:101110004FF0000200970028EBD14FF0400120462D
:1011200000F0E2F930B10320D7E735F8020BC0F345
:101130000800E6E7202084F839000020CDE70220EF
:10114000CBE77047FEE7000070B586B0002410487A
:101150000094019402940394816941F00401816137
:1011600080690C4E00F004004FF480650490224624
:1011700029463046FFF73AF901200095CDE90104F0
:101180000220039069463046FFF740F806B070BD74
:10119000001002400008014010B586B00024174836
:1011A000009401940294039404944FF080410594B8
:1011B000016041F6FF01C0E901144FF47A71C0E902
:1011C00003148461FFF780FC08B1FEF7D1FF4FF4F0
:1011D0008050009069460948FFF7ECFC08B1FEF723
:1011E000C7FF049404A905480594FFF739FC0028BB
:1011F00001D0FEF7BDFF06B010BD000014000020B6
:101200000C4810B50A4901604FF4165141600021A5
:1012100081600C22C160C0E904128161C161FFF7E5
:10122000C3FE002803D0BDE81040FEF7A1BF10BDEB
:10123000004400405C000020FEE7704770477047A4
:10124000FFF7E0B830B58FB028216846FEF771FF90
:1012500014210AA8FEF76DFF0224012004900094D7
:101260001020059000254FF46010CDE90850079438
:101270006846FFF74FFA0AA90F2081E831006002A3
:10128000CDE90D0502210AA8FFF758F90FB030BDCE
:10129000704700000148FFF7F9BC0000140000206F
:1012A000F0B50268164B174C174D4FF08047984227
:1012B00005D0B84203D0A04201D0A84203D122F009
:1012C00070064A683243984205D0B84203D0A04223
:1012D00001D0A84203D122F44074CA6822434C6969
:1012E00022F08002224302608A68C2620A68826237
:1012F000984201D10969016301214161F0BD0000FB
:10130000002C0140000400400008004010B5846833
:1013100042EA032224F47F440A432243826010BD40
:10132000826822F070020A4342F007018160704730
:1013300010B5036A046A24F001040462846924F08D
:10134000F00444EA021423F00A020A4384610262B0
:1013500010BD10B5036A23F0100303628369046AA9
:1013600023F4704343EA023224F0A00343EA01115C
:101370008261016210BD10B5406A0021C185C1843F
:10138000FFF763FD10BD0168CA6822F49072CA605D
:1013900001684A6922F001024A61202180F83A106E
:1013A000704710B590F83A10222901D0022010BDE4
:1013B00082684FF480539A4201D1016921B1816A58
:1013C0009A421BD04AB10AE00268816A5268C2F3AD
:1013D00008020A80816A891C08E0026972B1026809
:1013E000526802F07F020A70816A491C8162C18DD5
:1013F000491E0904090CC18503D016E00268526831
:10140000F1E70168CA6822F02002CA600168CA6870
:1014100022F48072CA6001684A6922F001024A61BE
:10142000202180F83A10FFF731FE002010BD0000A7
:1014300070B5044600680169E26821F44051114327
:1014400001612169A0680843616908432168CA688D
:1014500041F20C639A430243CA6020684169A26961
:1014600021F44071114341611E492068884202D134
:10147000FFF70AF901E0FFF7F7F800EBC00101EB15
:101480000012606864218000B2FBF0F3B3FBF1F35B
:101490006FF018067343B2FBF0F5B2FBF0F605EB04
:1014A0008305322303EB0515B5FBF1F5B6FBF1F629
:1014B00005F0F00505EB0615B2FBF0F6B2FBF0F017
:1014C000B0FBF1F06FF01802504306EB800003EB25
:1014D0000010B0FBF1F0216800F00F002844886094
:1014E00070BD0000003801402DE9F04198461746D4
:1014F0000E460446069D1DE0681C1BD02DB1FEF76C
:101500007BFFA0EB0800A84214D92068C16821F431
:10151000D071C1602068416921F001014161202042
:1015200084F8390084F83A00002084F83800032059
:10153000BDE8F0812068006836EA000004D0002091
:10154000B842D9D00020F3E70120F9E70148FFF7BE
:101550007DBC00005C000020FEE70907090E0028A2
:1015600004DB00F1E02080F80014704700F00F0069
:1015700000F1E02080F8141D704702E008C8121F37
:1015800008C1002AFAD170477047002001E001C16C
:10159000121F002AFBD17047FEF73CFFFFF752FEF7
:1015A000FFF7D2FDFFF7F8FDFFF72AFE0148FFF72E
:1015B000D5FAFEE714000020000000000000000043
:1015C00001020304060708090000000001020304E9
:1015D000F015000800000020140000007A15000833
:1015E00004160008140000208C0400008A1500086E
:1015F00000000000010000001000000000000000DA
:041600000024F400CE
:04000005080000ED02
:00000001FF
